620                    PEN               F20180605C4remunePEN                000007S                                                                    
002L80193008    P00110418190700007033GONZALES PUERTAS GEINER JAVIER          000000001108800PEN         
002L06795263    P00110111250710019626MEJIA MALLQUI MARCO ANIBAL              000000000898680PEN         
002L42796146    P00110174090710025220CASTRO MARQUEZ FERNANDO                 000000000768000PEN         
002L06205786    P00110500000709249704NINAQUISPE PAREDES FELIX                000000001192800PEN         
002L09756034    P00110147000710004935SOTO CECENARIO SAMUEL BERNARDINO        000000001247040PEN         
002L09470111    P00110710000709816153PARRA ALVARADO GUIDO EDGARDO            000000000913200PEN         
002L08341815    P00110501000709362673OYARCE MORI JOSE NOLASCO                000000001021200PEN         
