100000520200505OC00011910215470064       00000000015325.10Planilla de Haberes                     000345408271349
2A19133455213043      172549912       ZACARIAS ILLESCA CESAR AUGUSTO                                             Referencia para el beneficiario         Ref. para la empresa000100000000002927.09S
2A19134105893095      180162764       AGUIRRE VILLODAS JULIO                                                     Referencia para el beneficiario         Ref. para la empresa000100000000004128.29S
2A19196625525038      110882527       ASENCIOS ROJAS HUMBERTO WILFRE                                             Referencia para el beneficiario         Ref. para la empresa000100000000001728.01S
2A19190369974099      180289599       MILLA PANANA CHRISTIAN GIANC                                               Referencia para el beneficiario         Ref. para la empresa000100000000002622.67S
2A19190636196010      123265153       GUTIERREZ SULLCARAY ANTONIO                                                Referencia para el beneficiario         Ref. para la empresa000100000000003919.04S
