61000110686000100006805USD000000000310745F20141113DDEPOSITO CTS             000005S                                                                    
002L06795263    P00110312660710018886MEJIA MALLQUI MARCO ANIBAL              000000000036311DEPOSITO CTS                                                                                                                                    000000001120454PEN                  
002L06144061    P00110710000708435539RUIZ GUILLEN HIPOLITO                   000000000050028DEPOSITO CTS                                                                                                                                    000000001273190PEN                  
002L06877111    P00110501000708232245SAUCEDO GARRIDO GREGORIO                000000000100008DEPOSITO CTS                                                                                                                                    000000003014988PEN                  
002L08660568    P00110502000708077558DAMIAN ROJAS DE ROSALE TERESA VILMA     000000000083605DEPOSITO CTS                                                                                                                                    000000002520480PEN                  
002L10576846    P00110501000708619085FERNANDEZ VIDARTE ENRIQUE               000000000040793DEPOSITO CTS                                                                                                                                    000000001330795PEN                  
