60000110686000100006678PEN000000000498192F20141113DDEPOSITO CTS             000005S                                                                    
002L09756034    P00110147000710004935SOTO CECENARIO SAMUEL BERNARDINO        000000000129178DEPOSITO CTS                                                                                                                                    000000001357811PEN                  
002L44132974    P00110312670710018843HERRERA GASTELUMENDI GILMER MICHEL      000000000013124DEPOSITO CTS                                                                                                                                    000000000158843PEN                  
002L09470111    P00110710000709816153PARRA ALVARADO GUIDO EDGARDO            000000000098085DEPOSITO CTS                                                                                                                                    000000001012835PEN                  
002L06205786    P00110500000709249704NINAQUISPE PAREDES FELIX                000000000141007DEPOSITO CTS                                                                                                                                    000000001488419PEN                  
002L08341815    P00110501000709362673OYARCE MORI JOSE NOLASCO                000000000116798DEPOSITO CTS                                                                                                                                    000000001280067PEN                  
