60000110686000100006678PEN000000001199014F20210510DDEPOSITO CTS             000007S                                                                    
002L06205786    P00110500000709249704NINAQUISPE PAREDES FELIX                000000000168015DEPOSITO CTS                                                                                                                                    000000001216800PEN                  
002L09470111    P00110710000709816153PARRA ALVARADO GUIDO EDGARDO            000000000143655DEPOSITO CTS                                                                                                                                    000000000996120PEN                  
002L09756034    P00110147000710004935SOTO CECENARIO SAMUEL BERNARDINO        000000000155820DEPOSITO CTS                                                                                                                                    000000001101600PEN                  
002L06795263    P00110111250710019626MEJIA MALLQUI MARCO ANIBAL              000000000130580DEPOSITO CTS                                                                                                                                    000000000907920PEN                  
002L42796146    P00110174090710025220CASTRO MARQUEZ FERNANDO                 000000000124410DEPOSITO CTS                                                                                                                                    000000000864720PEN                  
002L72951021    P00110057760735458176DELGADO FOPPIANI ANDRE MOISES           000000000343201DEPOSITO CTS                                                                                                                                    000000002678124PEN                  
002L07479036    P00110057720735506693GONZALES PAIRAZAMAN ROBERTO CARLOS      000000000133333DEPOSITO CTS                                                                                                                                    000000003200000PEN                  
