25535997INFANTES POMAR ANGEL FEDERICO DEPOSITO DE CTS     20210510000009067483126900035025535997 00915930126900035056
45321303OTOYA PAREDES CINDY PAULETTE  DEPOSITO DE CTS     20210510000001925423880969625845321303 00917030880969625826
10316927BALLEN ROSSELLO JUAN JOSE     DEPOSITO DE CTS     20210510000026260503124941323610316927 00902830124941323620
72972268NAUPARI ALVAREZ ROSMERY       DEPOSITO DE CTS     20210510000001139033830941395672972268 00917030830941395628
09151578DULANTO BEJARANO JOSE ANTONIO DEPOSITO DE CTS     20210510000004550003830953241709151578 00917030830953241727
40256255RODRIGUEZ VALDERRAMA LUIS EDGADEPOSITO DE CTS     20210510000011329793824921318540256255 00972430824921318564
42906584HUERTA CABRERA MIJAIL VALENTINDEPOSITO DE CTS     20210510000002999643880969627442906584 00917030880969627423
43986704FELICES AGUILAR LEYLA FLOR    DEPOSITO DE CTS     20210510000001042503824934175443986704 00972430824934175462
40964655BERTOLOTTI RIVERA BRUNO JESUS DEPOSITO DE CTS     20210510000010500003880950627540964655 00917030880950627520
08599013RAMIREZ CHUNGA JULIO CESAR    DEPOSITO DE CTS     20210510000000596753880952775008599013 00917030880952775027
44812785RIVEROS HUANAY HIMMY WILLIAM  DEPOSITO DE CTS     20210510000001737503860922353544812785 00917030860922353523
10626797REQUE ESPARZA MANUEL ENRIQUE  DEPOSITO DE CTS     20210510000002080273850998780910626797 00917030850998780920
46363098BALBIN VILLANUEVA WILSON      DEPOSITO DE CTS     20210510000001650623182942719246363098 00906730182942719208
07762058LAURA PAREDES BILLY JOHN      DEPOSITO DE CTS     20210510000001745923860914910207762058 00917030860914910223
42845648LOPEZ DAMIAN FIORELLA JAQUELINDEPOSITO DE CTS     20210510000008568183860916375642845648 00917030860916375627
70189785TELLO PASACHE KERLY CAROLINA  DEPOSITO DE CTS     20210510000002041663860917125470189785 00917030860917125423
10191981HUALLPA HUAMANI VIDAL         DEPOSITO DE CTS     20210510000002603263880969620910191981 00917030880969620929
41472691ALVINO CANO LELIS CLEDI       DEPOSITO DE CTS     20210510000001243853182942713541472691 00906730182942713507
71406021ARIZAGA TORRES JHONATAN JAVIERDEPOSITO DE CTS     20210510000001082803822995828871406021 00972430822995828867
71968512POMA RAMOS WALDIR TAFFAREL    DEPOSITO DE CTS     20210510000000440833823937432871968512 00972430823937432866
74853527VARGAS MU헲Z DUMET ROLANDO    DEPOSITO DE CTS     20210510000000164453823943882674853527 00972430823943882663
46555301VERDE RAMIREZ ELIZABETH LIZ   DEPOSITO DE CTS     20210510000000966673823927343946555301 00972430823927343963
45137781CALDERON ZAVALETA RANDY ROGER DEPOSITO DE CTS     20210510000000475563823928600145137781 00972430823928600166
78109059CANCHANYA PROCIL ROBERTO      DEPOSITO DE CTS     20210510000000600003823932623778109059 00972430823932623768
41034199HERRERA MONTOYA ROSARIO SUSSETDEPOSITO DE CTS     20210510000000445003823933486841034199 00972430823933486860
46915088SOVIA TORRES MARLENE          DEPOSITO DE CTS     20210510000000994443824972420746915088 00972430824972420768
10189684MESIA ALVARADO JOSE JESUS     DEPOSITO DE CTS     20210510000001550723824972498310189684 00972430824972498364
41393879BURNEO MIRANDA YSABEL YOVANA  DEPOSITO DE CTS     20210510000005527783824975155641393879 00972430824975155664
09513818REYES VALDEZ ANGEL WILMER     DEPOSITO DE CTS     20210510000001710133860916231109513818 00917030860916231122
62294378CAHUAZA MOZOMBITE WILLIAN JULIDEPOSITO DE CTS     20210510000000675533860933594162294378 00917030860933594128
76322604IZAGUIRRE VARA MIGUEL ANGEL   DEPOSITO DE CTS     20210510000000181873823938640576322604 00972430823938640568
41942807VILCHEZ VALLADARES FRANKLIN JODEPOSITO DE CTS     20210510000000153453823939201541942807 00972430823939201567
78199975FLORES TANANTA JESUS          DEPOSITO DE CTS     20210510000000082673823944309978199975 00972430823944309960
77286922MAMANI BENAVENTE ANTHONY JAIRZDEPOSITO DE CTS     20210510000000090423823944426177286922 00972430823944426165
75906018BUENDIA MEZA GERSON FELIX     DEPOSITO DE CTS     20210510000000733013824980748175906018 00972430824980748169
76650572ISUIZA CUMAPA ROMARIO         DEPOSITO DE CTS     20210510000000628453824980779676650572 00972430824980779660
42834551DELGADO PEREZ JOSE            DEPOSITO DE CTS     20210510000000843123824981248142834551 00972430824981248162
41815100PAGADOR CHAVEZ GERARDO MANUEL DEPOSITO DE CTS     20210510000000775743824984426041815100 00972430824984426062
71308883CORDERO FELIPA LUIS ALBERTO   DEPOSITO DE CTS     20210510000000588133824979083671308883 00972430824979083663
48332407PIEDRA VASQUEZ FERNANDO JOEL  DEPOSITO DE CTS     20210510000000663813850979987348332407 00917030850979987324
47413588PIEDRA NIZAMA JIAN MARCO      DEPOSITO DE CTS     20210510000000595413850975162747413588 00917030850975162720
43028917LINARES CATASHUNGA LIONEL     DEPOSITO DE CTS     20210510000000732163824979919143028917 00972430824979919164
72377222QUINTO PASTOR ULISES GERARDO  DEPOSITO DE CTS     20210510000000714973824979906872377222 00972430824979906864
45579139ORTIZ ORTEGA ELIO CESAR       DEPOSITO DE CTS     20210510000000654823824979991045579139 00972430824979991067
45910624FERNANDEZ MENDOZA STEWARD GOLDDEPOSITO DE CTS     20210510000000613203830961439745910624 00917030830961439722
73264708ROJAS ROMERO MAO KURT         DEPOSITO DE CTS     20210510000000698183824979989473264708 00972430824979989463
10883046VARGAS CARMELO MICHAEL MILTON DEPOSITO DE CTS     20210510000000615163850989737010883046 00917030850989737022
77681919TREJO SUSANIBAR JOHAN ANTONIO DEPOSITO DE CTS     20210510000000580443823904473177681919 00972430823904473161
42896633GUTIERREZ CASTRO ROBERTO      DEPOSITO DE CTS     20210510000000574243823918142642896633 00972430823918142661
76377934MESTANZA NORIEGA CARLOS ALBERTDEPOSITO DE CTS     20210510000000538903823918141876377934 00972430823918141868
77238525CHAVARRIA SOTOMAYOR EDWIN MARLDEPOSITO DE CTS     20210510000000491863823918140077238525 00972430823918140066
80195003MENDOZA ARANDA FIDEL          DEPOSITO DE CTS     20210510000000570143823919037780195003 00972430823919037765
76130789MAYHUA FITZMAURICE CARLO MIGUEDEPOSITO DE CTS     20210510000000480443823920525876130789 00972430823920525860
71697254헤HUI FELIPE OSCAR ROBERTO    DEPOSITO DE CTS     20210510000000525603823920502771697254 00972430823920502769
45882758SANCHEZ MORAN JHONY ANGEL     DEPOSITO DE CTS     20210510000000494213823922863145882758 00972430823922863161
75593951ACARO SALEZ RENZO SAMUEL      DEPOSITO DE CTS     20210510000000447323823923663475593951 00972430823923663465
62290098YAHUARCANI CAHUAZA LINCER SIALDEPOSITO DE CTS     20210510000000418173823925079162290098 00972430823925079164
48211134ALCANTARA ESTRADA JOSUE       DEPOSITO DE CTS     20210510000000793953823925070048211134 00972430823925070065
44391949YEPEZ AHUANARI JESUS MARTIN   DEPOSITO DE CTS     20210510000000341513823928695144391949 00972430823928695162
45039166PIZANGO NOA WENNINGER         DEPOSITO DE CTS     20210510000000329513823929147245039166 00972430823929147262
70558690QUISPE VARONA JORGE ARMANDO   DEPOSITO DE CTS     20210510000000352503823930830070558690 00972430823930830066
71532223LUCAS ESPINOZA ROMARIO YOVANI DEPOSITO DE CTS     20210510000000277763823930832671532223 00972430823930832661
45664925ALCA MEDINA EDWIN MARIO       DEPOSITO DE CTS     20210510000000235023823934740745664925 00972430823934740762
71343707BORA헲 PACAYA LUIS GERMAN     DEPOSITO DE CTS     20210510000000208433823934741571343707 00972430823934741565
47957678PACAYA ARMAS AURELIO ASUNCION DEPOSITO DE CTS     20210510000000230153823934931247957678 00972430823934931262
48117787TEJADA ANGELES ANTONY         DEPOSITO DE CTS     20210510000000244623823934932048117787 00972430823934932065
73260159HUERTA HENOSTROZA ROMARIO BILLDEPOSITO DE CTS     20210510000000222773823935027873260159 00972430823935027861
43096455BENITES PALOMINO JOEL ERICKSONDEPOSITO DE CTS     20210510000000210283880957677343096455 00917030880957677329
72169442LAZO CARDENAS JUAN JOSE       DEPOSITO DE CTS     20210510000000201403823935948572169442 00972430823935948563
47546710VELASQUEZ GARABITO MAICOI CRISDEPOSITO DE CTS     20210510000000187553823936597947546710 00972430823936597967
45291813MESTANZA CALDERON JOSE ELMER  DEPOSITO DE CTS     20210510000000197483823937136545291813 00972430823937136561
76226700MESTANZA SORIA JUAN CARLOS    DEPOSITO DE CTS     20210510000000165333823937466676226700 00972430823937466669
72311533LOPEZ HERRERA RIVALDO HOLSEN  DEPOSITO DE CTS     20210510000000671103824914856372311533 00972430824914856362
41532790VARGAS CHAMBI VICTOR AURELIO  DEPOSITO DE CTS     20210510000000754343824915879441532790 00972430824915879460
74843102GAMA SHAHUANO JACK SANDER     DEPOSITO DE CTS     20210510000000751923824931173274843102 00972430824931173264
47421920CHUMIOQUE GAMARRA LUIS ALBERTODEPOSITO DE CTS     20210510000000814353824937491247421920 00972430824937491266
71214586MARAPARA VASQUEZ MAX ESTANISLADEPOSITO DE CTS     20210510000000673933860943969371214586 00917030860943969320
41407119RIVAS HUANCA BRUNO            DEPOSITO DE CTS     20210510000000740513824969612441407119 00972430824969612469
46450485BIMINCHUMO GASTELO CRISTHIAN FDEPOSITO DE CTS     20210510000000747623824969611646450485 00972430824969611665
47836101YAICATE DAHUA BORIS JAIR      DEPOSITO DE CTS     20210510000000739793830934679247836101 00917030830934679229
10882527ASENCIOS ROJAS HUMBERTO WILFREDEPOSITO DE CTS     20210510000000720793860927647510882527 00917030860927647528
47018704LOPEZ SILVA ELVIS             DEPOSITO DE CTS     20210510000000874803824969737947018704 00972430824969737968
72197146CUEVAS ARMIJO ABELARDO MAYCOL DEPOSITO DE CTS     20210510000000906063824969729672197146 00972430824969729664
43054661VILELA TICLAHUANCA NOE        DEPOSITO DE CTS     20210510000000814803850983121343054661 00917030850983121323
45362198LUPACA CLAROS JULIO CESAR     DEPOSITO DE CTS     20210510000000675903824971386145362198 00972430824971386165
42007039ACOSTA MURRIETA JONNY IVAN    DEPOSITO DE CTS     20210510000000458073850979989942007039 00917030850979989929
41719349CORTEZ COCHACHI MIGUEL ANGEL  DEPOSITO DE CTS     20210510000000689043824974861041719349 00972430824974861065
46367364ROMERO SUAREZ MARCO POLO      DEPOSITO DE CTS     20210510000000791103824974863646367364 00972430824974863660
46004850VICENTE MACALUPU JEYTSON      DEPOSITO DE CTS     20210510000001060653824976488046004850 00972430824976488063
09475894CARRILLO PUMA GABRIEL ANGEL   DEPOSITO DE CTS     20210510000001379793850974902709475894                     
42510935BARTRA DEL AGUILA EDER MICK   DEPOSITO DE CTS     20210510000001202393032905283142510935                     
05631198SHU헤 SINTI FAVIO             DEPOSITO DE CTS     20210510000001142023880969619105631198 00917030880969619129
44792811MANAMA PADILLA LIRIO          DEPOSITO DE CTS     20210510000000832643870964382244792811 00917030870964382225
40944562HUINCHO FLORES EMERSON        DEPOSITO DE CTS     20210510000001007623880902382640944562 00917030880902382624
47037722IBARRA DE LA CRUZ ABIGAEL MARIDEPOSITO DE CTS     20210510000001132803890958289547037722 00917030890958289520
42697919AREVALO SAAVEDRA CRISTIAN JHONDEPOSITO DE CTS     20210510000000894273890960985442697919 00917030890960985426
47511542PALOMINO FLORES JOSE ONAN     DEPOSITO DE CTS     20210510000000735733890930175947511542 00917030890930175928
42148167RIVERA CHUJUTALLI ROYER       DEPOSITO DE CTS     20210510000001758153890959827142148167 00917030890959827126
48415663LUNA CUADRADO JUNNIOR         DEPOSITO DE CTS     20210510000000754803830957032648415663 00917030830957032623
41699408CORDOVA PAZ HENRRY            DEPOSITO DE CTS     20210510000000792603830964070741699408 00917030830964070720
43546046OCAMPO ULCUHUANGO JACK        DEPOSITO DE CTS     20210510000000703053830972880943546046 00917030830972880929
44763280MALDONADO GALARZA DIEGO ARMANDDEPOSITO DE CTS     20210510000000701953830972877544763280 00917030830972877522
75423256VASQUEZ DEL AGUILA RIQUELME SADEPOSITO DE CTS     20210510000000663063830972879175423256 00917030830972879129
76773858AZABACHE AGAPITO LUIS JHONATANDEPOSITO DE CTS     20210510000000866513830984773276773858 00917030830984773229
41033388BOHORQUEZ MALLQUI JULIO CESAR DEPOSITO DE CTS     20210510000000722553830984774041033388 00917030830984774022
48133559VENTURA QUISPE ELVIS NEIRO    DEPOSITO DE CTS     20210510000000709503820911957048133559 00917030820911957026
48835374VILCA MORENO JHONATAN         DEPOSITO DE CTS     20210510000000745313820912971048835374 00917030820912971026
70659098SANTOS AGUILAR DARWIN DAVID   DEPOSITO DE CTS     20210510000000663413820912972870659098 00917030820912972828
42801431URBINA HERNANDEZ FELIX IGOR   DEPOSITO DE CTS     20210510000000871583032905314442801431                     
80169155VILLARRUEL VILLARRUEL FREDY ABDEPOSITO DE CTS     20210510000001113753820920392980169155 00917030820920392921
47935372QUI헲NES AYALA YULVER CESILIO DEPOSITO DE CTS     20210510000000707803850972401247935372 00917030850972401229
72260870ESPINOZA LOAYZA ANDERSON      DEPOSITO DE CTS     20210510000000622023850986081672260870 00917030850986081627
76579210VILLANERA TRUJILLO JONATHAN RIDEPOSITO DE CTS     20210510000000761393850988098876579210 00917030850988098820
45410103ROSAS JIMENEZ EUSEBIO HONORIO DEPOSITO DE CTS     20210510000000703253850992760745410103 00917030850992760721
43777107MENDOZA COBE헤S JUAN CARLOS   DEPOSITO DE CTS     20210510000000659563830941379043777107 00917030830941379021
42422711VILQUINICHE ROBLES RUSBET     DEPOSITO DE CTS     20210510000000740333830944206242422711 00917030830944207023
42571881SOSA QUISPE LUIS ALBERTO      DEPOSITO DE CTS     20210510000000787503830947233342571881 00917030830947233328
77282343BALLENA VALDERA JOSE SANTOS   DEPOSITO DE CTS     20210510000000684533890958288777282343 00917030830952923127
46702233MILLA TARAZONA LISNER NILO    DEPOSITO DE CTS     20210510000001296753880969621746702233 00917030880969621722
44033015SHU헤 LOMAS JOSE LUIS         DEPOSITO DE CTS     20210510000000756513860914909444033015 00917030860914909422
25782797GONZALES SARZO RAUL DAVID     DEPOSITO DE CTS     20210510000001227603182943399225782797 00906730182943399203
47658180TORBISCO ALVARADO MICHELL CARLDEPOSITO DE CTS     20210510000000945753182943474347658180 00906730182943474309
80193008GONZALES PUERTAS GEINER JAVIERDEPOSITO DE CTS     20210510000001386363850975104980193008                     
70203048CALLOAPAZA ORTEGA CESAR RAFAELDEPOSITO DE CTS     20210510000001216953182943407370203048 00906730182943407301
42947289FERNANDEZ CEDAMANOS ERNESTO ALDEPOSITO DE CTS     20210510000001220703182943414942947289 00906730182943414909
43158963ALCANTARA ESTRADA FELIX OSCAR DEPOSITO DE CTS     20210510000001146753182943450343158963 00906730182943450307
40412155CABALLERO RIVERA GIANCARLO    DEPOSITO DE CTS     20210510000000787803890973573340412155 00917030890973573329
10739809ALLCCA VILCA FREDDY WILFREDO  DEPOSITO DE CTS     20210510000001006833182943297810739809 00906730182943297803
31460621DIAZ QUISPE JULIO             DEPOSITO DE CTS     20210510000001373823880969622531460621 00917030880969622525
