42594293PUSSE TERRONES SEGUNDO ALEXANDDEPOSITO DE CTS     20210510000000360653013900789942594293 00901931013900789919
42480079LEON ARCE ULISES GERARDO      DEPOSITO DE CTS     20210510000000340743880904071842480079                     
10413151ARCE MIO EVERALDO             DEPOSITO DE CTS     20210510000000786723003900983910413151 00920331003900983915
06840146SOLANO AZAÑA ESDRAS MATEO     DEPOSITO DE CTS     20210510000000517223003901514706840146 00920331003901514715
06013625ZAMBRANO TUCNO JULIO          DEPOSITO DE CTS     20210510000000339953000987573806013625 00928331000987573833
02856181PANTA MONDRAGON ALEX RUBEN    DEPOSITO DE CTS     20210510000000352373003901247002856181 00920331003901247014
42807200LOZANO SEGURA EDUARDO ENRIQUE DEPOSITO DE CTS     20210510000000413703850906800542807200                     
